:100000000C9462000C947F000C947F000C943701D8
:100010000C9498010C947F000C947F000C9489063A
:100020000C947F000C947F000C947F000C947F0054
:100030000C947F000C94B2020C947F000C947F000F
:100040000C94E5060C947F000C947F000C947F00C8
:100050000C947F000C947F000C947F000C947F0024
:100060000C947F000C947F00000000080002010047
:100070000003040700000000000000000102040863
:100080001020408001020408102001020408102002
:10009000040404040404040402020202020203032E
:1000A00003030303000000002300260029000000D2
:1000B0000000250028002B0000000000240027007D
:1000C0002A00020011241FBECFEFD8E0DEBFCDBF53
:1000D00011E0A0E0B1E0ECEDF1E102C005900D927D
:1000E000A632B107D9F721E0A6E2B1E001C01D9226
:1000F000A135B207E1F70E9434040C94EC080C948B
:1001000000008091270190912801DC01ED91FC9184
:100110000480F581E02D09940895883038F08E3000
:1001200040F0863148F0E0E0F0E008C0EDE6F0E0B5
:1001300005C0EBE6F0E002C0ECE6F0E0908188302C
:1001400068F441E050E060E070E0082E04C0440F25
:10015000551F661F771F0A94D2F715C0482F50E02D
:100160009A018E3018F42850310902C02E503109FE
:1001700041E050E060E070E004C0440F551F661F8E
:10018000771F2A95D2F7492B40833BB3883050F034
:1001900021E08E3008F420E091E001C0990F2A950B
:1001A000EAF701C094E0932B9BBB20916800883054
:1001B00050F091E08E3008F490E081E001C0880FAB
:1001C0009A95EAF701C084E0822B80936800089535
:1001D0001F93CF93DF93CFE0D1E081E0C731D80701
:1001E00051F01881229660E0812F0E949B03812F9D
:1001F0000E948D00F2CF61E084E00E949B0361E0E9
:1002000085E00E949B0361E086E00E949B0361E021
:1002100087E00E949B0360E089E00E949B0360E00E
:1002200088E00E949B0361E083E00E949B0389E0D9
:100230000E948D0088E00E948D008DE090E00E9479
:100240004304EC010E949A02D0932801C093270135
:1002500040E452E46FE070E089E291E00E944103E3
:1002600089E291E0DF91CF911F910C946C031F9272
:100270000F920FB60F9211242F933F934F935F93DA
:100280006F937F938F939F93AF93BF93EF93FF935E
:10029000F8941092260188E00E940A040197D9F48C
:1002A0008091270190912801DC01ED91FC91019052
:1002B000F081E02D09952FEF3FEFA90161E870E093
:1002C00089E291E00E94510360E0809127019091C2
:1002D00028010E94AF0289E00E940A040197B1F44C
:1002E00089E291E00E946C0380912701909128019E
:1002F000DC01ED91FC910280F381E02D099561E034
:1003000080912701909128010E94AF027894FF917B
:10031000EF91BF91AF919F918F917F916F915F917D
:100320004F913F912F910F900FBE0F901F901895F6
:100330001F920F920FB60F9211240F931F932F93BA
:100340003F934F935F936F937F938F939F93AF935D
:10035000BF93CF93DF93EF93FF93F894809126019F
:100360008823B1F07894FF91EF91DF91CF91BF9105
:10037000AF919F918F917F916F915F914F913F913D
:100380002F911F910F910F900FBE0F901F901895F6
:10039000CFE0D1E007E011E0B1E0C731DB0711F3B6
:1003A000888122960E940A04019781F48091270196
:1003B00090912801DC01ED91FC91D8016D917C9127
:1003C0000084F185E02D0995809326010E5F1F4F73
:1003D000E3CF24EF31E040E050E068EC70E083E0F0
:1003E0000C944504CF93DF93EC018D819E8100979F
:1003F000A1F424EF31E040E050E060ED77E083E0ED
:100400000E94450484E190E09C878B87CE010E9486
:10041000A40260E00E94D40319C00297B9F424EF4B
:1004200031E040E050E060ED77E083E00E94450479
:10043000CE010E94A40260E00E94D40361E08DE03E
:100440000E94D4038AE090E09C878B878D819E81F7
:1004500001969E838D83DF91CF910895FC011682D2
:10046000158260E084E00E94D40360E085E00E9491
:10047000D40360E086E00E94D40360E087E00E943D
:10048000D40360E08DE00C94D403CF93DF93EC01B0
:100490002B853C85215031093C872B87232B79F410
:1004A00024EF31E040E050E060ED77E083E00E942F
:1004B000450461E0CE01DF91CF910C94AF02DF9152
:1004C000CF910895EF92FF921F93CF93DF931F92E6
:1004D000CDB7DEB77C01162F61E0812F79830E94B2
:1004E000D403612F7981C7010E94A802C7010E942D
:1004F000AC02882351F0D701ED91FC910680F78181
:10050000E02DC701099580E00EC024EF31E040E006
:1005100050E06CED75E083E00E94450489E291E0D3
:100520000E946C0381E00F90DF91CF911F91FF90AB
:10053000EF900895FC0181E084838BE191E0918349
:100540008083168215820895FC018281938108952B
:10055000FC01738362830895FC0184810895FC018A
:10056000648308951F920F920FB60F9211242F9358
:100570003F934F935F936F937F938F939F93AF932B
:10058000BF93EF93FF93E0912D01F0912E01099518
:10059000FF91EF91BF91AF919F918F917F916F915B
:1005A0005F914F913F912F910F900FBE0F901F9031
:1005B0001895FC01A3E0440F551F661F771FAA95ED
:1005C000D1F74115510581E06807710514F481E008
:1005D0000EC033E075956795579547953A95D1F7D5
:1005E0004115510581E0680771051CF482E08283A2
:1005F00031C023E075956795579547952A95D1F7B2
:100600004115510581E06807710514F483E0EFCFCF
:1006100092E075956795579547959A95D1F741154D
:10062000510581E06807710514F484E0E0CF82E0B1
:1006300075956795579547958A95D1F785E082839B
:100640004115510581E06807710524F04FEF5FEF18
:1006500060E070E08FB78383F894518340835093B8
:1006600087004093860083818FBF80918100887FBF
:1006700080938100809181009281892B80938100F9
:1006800008951092800020E1209381000C94D902FB
:10069000E1E8F0E02081DC0112968C91282B208388
:1006A00008950F931F93CF93DF93EC018B01BA0151
:1006B000A901141615061606170614F40E94D9028D
:1006C0001D830C8381E080936F00CE01DF91CF9179
:1006D0001F910F910C944803E1E8F0E08081887F3E
:1006E00080830895833081F028F4813099F082303E
:1006F000A1F008958730A9F08830B9F08430D1F4A2
:10070000809180008F7D03C0809180008F778093DF
:100710008000089584B58F7702C084B58F7D84BD35
:1007200008958091B0008F7703C08091B0008F7DD5
:100730008093B0000895CF93DF9390E0FC01E458DC
:10074000FF4F2491FC01E057FF4F8491882349F12A
:1007500090E0880F991FFC01E854FF4FA591B491D8
:1007600082559F4FFC01C591D4919FB7611108C07C
:10077000F8948C91209582238C93888182230AC0DF
:10078000623051F4F8948C91322F309583238C93FE
:100790008881822B888304C0F8948C91822B8C935F
:1007A0009FBFDF91CF9108950F931F93CF93DF9356
:1007B0001F92CDB7DEB7282F30E0F901E859FF4F7F
:1007C0008491F901E458FF4F1491F901E057FF4F6C
:1007D00004910023C9F0882321F069830E947203E9
:1007E0006981E02FF0E0EE0FFF1FE255FF4FA5916A
:1007F000B4919FB7F8948C91611103C01095812337
:1008000001C0812B8C939FBF0F90DF91CF911F91DF
:100810000F910895CF93DF93282F30E0F901E85925
:10082000FF4F8491F901E458FF4FD491F901E0574B
:10083000FF4FC491CC2391F081110E947203EC2FE1
:10084000F0E0EE0FFF1FEC55FF4FA591B4912C91F6
:100850002D2381E090E021F480E002C080E090E070
:10086000DF91CF91089508950E942F070E943304CD
:100870000E94E800C0E0D0E00E948C002097E1F3E5
:100880000E940000F9CF0C94C5073F924F925F92EF
:100890006F927F928F929F92AF92BF92CF92DF9290
:1008A000EF92FF920F931F93CF93DF9300D000D06E
:1008B000CDB7DEB78B0129013A0190910601981757
:1008C00021F09F3F09F0DAC104C0E2ECF0E034907F
:1008D00081C080930601E2ECF0E0E491EF3F09F47F
:1008E000CDC1E13031F1E23009F44BC0E11171C00A
:1008F00014BC15BC94B5926094BD95B5916095BD3E
:10090000282F30E0F901E057FF4FE491F0E0EE0FBF
:10091000FF1FE255FF4F4591549150933F01409383
:100920003E01F901E458FF4F249120933D01312C01
:1009300053C01092800010928100909181009860C5
:100940009093810090918100916090938100282F75
:1009500030E0F901E057FF4FE491F0E0EE0FFF1FA8
:10096000E255FF4F45915491509338014093370120
:10097000F901E458FF4F2491209336013324339436
:100980002BC01092B0001092B1009091B000926014
:100990009093B0009091B10091609093B100282F96
:1009A00030E0F901E057FF4FE491F0E0EE0FFF1F58
:1009B000E255FF4F459154915093310140933001DE
:1009C000F901E458FF4F249120932F0152E0352E76
:1009D00003C03E2E37FC52C161E00E949B034801D8
:1009E000A12CB12C832D8D7F09F0C7C060E072E18E
:1009F0008AE790E0A50194010E948C0729833A833D
:100A00004B835C8369017A0181E0C81AD108E1084F
:100A1000F1089FEFC916D104E104F10409F008F4CC
:100A20009AC060E472E48FE090E0A50194010E9416
:100A30008C0769017A01E1E0CE1AD108E108F108DA
:100A4000F2E03F1219C08FEFC816D104E104F1049F
:100A500009F008F48AC060E970ED83E090E0A50138
:100A600094010E948C0769017A0191E0C91AD108AA
:100A7000E108F10883E001C082E0EFEFCE16D10477
:100A8000E104F10409F008F467C068E478EE81E05D
:100A900090E0A50194010E948C0769017A01F1E0C0
:100AA000CF1AD108E108F1083320E1F082E03812D2
:100AB0001BC09FEFC916D104E104F10409F008F44A
:100AC000DBC064E274EF80E090E0A50194010E9435
:100AD0008C0769017A01E1E0CE1AD108E108F1083A
:100AE00085E003C083E001C084E0FFEFCF16D104AE
:100AF000E104F10489F180F162E17AE780E090E0BD
:100B0000A50194010E948C0769017A0181E0C81A4D
:100B1000D108E108F108311002C084E001C086E08C
:100B20009FEFC916D104E104F104B1F0A8F0C98027
:100B3000DA80EB80FC809AE0F594E794D794C79430
:100B40009A95D1F7E1E0CE1AD108E108F1083320F7
:100B500031F087E00BC081E0332011F007C085E061
:100B600095B5987F982B95BD38C082E09091B100E3
:100B7000987F982B9093B10030C060E072E18AE7D3
:100B800090E0A50194010E948C0769017A01F1E0CF
:100B9000CF1AD108E108F108C114D10481E0E806B8
:100BA000F10488F068E478EE81E090E0A50194011A
:100BB0000E948C0769017A0191E0C91AD108E10805
:100BC000F10893E001C091E0E1E03E1206C080919F
:100BD0008100887F892B8093810041145104610436
:100BE000710471F0D801AA0FBB1FA30192010E94EA
:100BF000AB0728EE33E040E050E00E946A0703C0F4
:100C00002FEF3FEFA901F1E03F16A1F082E0381687
:100C100019F1311033C0C7BC20934001309341011A
:100C2000409342015093430180916E008260809313
:100C30006E0024C0D0928900C092880020933901B0
:100C400030933A0140933B0150933C0180916F00F7
:100C5000826080936F0012C0C092B3002093320173
:100C600030933301409334015093350180917000EB
:100C700082608093700002C084E078CF0F900F9064
:100C80000F900F90DF91CF911F910F91FF90EF90F8
:100C9000DF90CF90BF90AF909F908F907F906F909C
:100CA0005F904F903F900895813039F018F0823076
:100CB00051F0089510926E00089580916F008D7F1D
:100CC00080936F000895809170008D7F80937000F5
:100CD00081E08093B0008091B100887F8460809330
:100CE000B1001092B3000895CF93C82F80910601F0
:100CF0008C1307C0E2ECF0E084919FEF9093060123
:100D000001C08FEF0E94540660E08C2FCF910C94AD
:100D1000D4031F920F920FB60F9211242F933F937B
:100D20004F935F936F937F938F939F93AF93BF93F3
:100D3000EF93FF938091320190913301A0913401A0
:100D4000B0913501892B8A2B8B2B51F190912F017A
:100D5000E0913001F0913101808189278083809179
:100D6000320190913301A0913401B09135011816F0
:100D700019061A061B06C4F48091320190913301C2
:100D8000A0913401B09135010197A109B109809377
:100D9000320190933301A0933401B093350104C024
:100DA000809106010E947406FF91EF91BF91AF916F
:100DB0009F918F917F916F915F914F913F912F9173
:100DC0000F900FBE0F901F9018951F920F920FB6A5
:100DD0000F9211242F933F938F939F93AF93BF93C1
:100DE0008091450190914601A0914701B091480141
:100DF0003091440123E0230F2D3720F40196A11DEB
:100E0000B11D05C026E8230F0296A11DB11D209338
:100E100044018093450190934601A0934701B0930C
:100E200048018091490190914A01A0914B01B091F4
:100E30004C010196A11DB11D8093490190934A0177
:100E4000A0934B01B0934C01BF91AF919F918F91B3
:100E50003F912F910F900FBE0F901F90189578948F
:100E600084B5826084BD84B5816084BD85B58260AF
:100E700085BD85B5816085BDEEE6F0E0808181604D
:100E80008083E1E8F0E0108280818260808380814D
:100E900081608083E0E8F0E0808181608083E1EB25
:100EA000F0E0808184608083E0EBF0E0808181600D
:100EB0008083EAE7F0E080818460808380818260C3
:100EC00080838081816080838081806880831092AC
:100ED000C1000895A1E21A2EAA1BBB1BFD010DC083
:100EE000AA1FBB1FEE1FFF1FA217B307E407F507DA
:100EF00020F0A21BB30BE40BF50B661F771F881FB6
:100F0000991F1A9469F760957095809590959B014B
:100F1000AC01BD01CF010895052E97FB1EF400948E
:100F20000E94A30757FD07D00E946A0707FC03D061
:100F30004EF40C94A30750954095309521953F4F62
:100F40004F4F5F4F089590958095709561957F4FB5
:100F50008F4F9F4F08950E94B607A59F900DB49F95
:100F6000900DA49F800D911D11240895A29FB001A2
:100F7000B39FC001A39F700D811D1124911DB29FCD
:100F8000700D811D1124911D0895CF93DF93823040
:100F9000910510F482E090E0E0914F01F091500152
:100FA00020E030E0A0E0B0E0309739F1408151819D
:100FB00048175907B8F04817590771F4828193818F
:100FC000109729F013969C938E9312972CC09093B0
:100FD000500180934F0127C02115310531F0421790
:100FE000530718F0A901DB0101C0EF019A01BD010F
:100FF000DF010280F381E02DD7CF21153105F9F013
:10100000281B390B2430310580F48A819B816115BE
:10101000710521F0FB019383828304C090935001FA
:1010200080934F01FE01329644C0FE01E20FF31F90
:101030008193919322503109398328833AC02091BA
:101040004D0130914E01232B41F42091020130914A
:10105000030130934E0120934D0120910001309106
:1010600001012115310541F42DB73EB7409104012E
:1010700050910501241B350BE0914D01F0914E017B
:10108000E217F307A0F42E1B3F0B2817390778F05F
:10109000AC014E5F5F4F2417350748F04E0F5F1FBE
:1010A00050934E0140934D018193919302C0E0E033
:1010B000F0E0CF01DF91CF910895CF93DF930097B8
:1010C00009F487C0FC01329713821282C0914F014C
:1010D000D0915001209781F420813181280F391F50
:1010E00080914D0190914E018217930779F5F0930D
:1010F0004E01E0934D016DC0DE0120E030E0AE17FF
:10110000BF0750F412964D915C9113979D014115C4
:10111000510509F1DA01F3CFB383A28340815181F4
:10112000840F951F8A179B0771F48D919C911197DD
:10113000840F951F02969183808312968D919C91C6
:101140001397938382832115310529F4F09350017D
:10115000E0934F013EC0D9011396FC93EE93129792
:101160004D915D91A40FB51FEA17FB0779F48081BB
:101170009181840F951F0296D90111969C938E93AD
:101180008281938113969C938E931297E0E0F0E016
:101190008A819B81009719F0FE01EC01F9CFCE0105
:1011A000029628813981820F931F20914D01309141
:1011B0004E012817390769F4309729F4109250012D
:1011C00010924F0102C013821282D0934E01C0933D
:0C11D0004D01DF91CF910895F894FFCFFE
:1011DC00000051018000FF04000500060007000E0E
:1011EC00000F001000110000000000F2012E02455B
:0611FC0002E9016202009D
:00000001FF
