:100000000C9461000C947E000C947E000C942E01E4
:100010000C9458010C947E000C947E000C947E008D
:100020000C947E000C947E000C947E000C947E0058
:100030000C947E000C9416020C947E000C947E00AE
:100040000C94A9030C947E000C947E000C947E000A
:100050000C947E000C947E000C947E000C947E0028
:100060000C947E000C947E00000000080002010049
:100070000003040700000000000000000102040863
:100080001020408001020408102001020408102002
:10009000040404040404040402020202020203032E
:1000A00003030303000000002300260029000000D2
:1000B0000000250028002B0000000000240027007D
:1000C0002A0011241FBECFEFD8E0DEBFCDBF11E064
:1000D000A0E0B1E0EEEAFAE002C005900D92A03196
:1000E000B107D9F721E0A0E1B1E001C01D92A8322B
:1000F000B207E1F70E9498030C9455050C94000098
:100100008091130190911401DC01ED91FC91048028
:10011000F581E02D099461E08DE00C94380388307E
:1001200038F08E3040F0863148F0E0E0F0E008C072
:10013000EDE6F0E005C0EBE6F0E002C0ECE6F0E052
:100140009081883068F441E050E060E070E0082E73
:1001500004C0440F551F661F771F0A94D2F715C0BD
:10016000482F50E09A018E3018F42850310902C00F
:100170002E50310941E050E060E070E004C0440FCF
:10018000551F661F771F2A95D2F7492B40833BB333
:10019000883050F021E08E3008F420E091E001C07A
:1001A000990F2A95EAF701C094E0932B9BBB20910D
:1001B0006800883050F091E08E3008F490E081E0E3
:1001C00001C0880F9A95EAF701C084E0822B8093E2
:1001D00068000895CF93DF9360E08EE00E94FF02F5
:1001E0008EE00E948F0061E084E00E94FF0261E0E7
:1001F00085E00E94FF0261E086E00E94FF0261E06C
:1002000087E00E94FF0260E083E10E94FF0260E05D
:1002100082E10E94FF0261E08BE00E94FF0283E125
:100220000E948F0082E10E948F008CE090E00E948B
:10023000A703EC010E940602D0931401C09313019E
:1002400040E452E46FE070E085E191E00E94A50295
:1002500085E191E0DF91CF910C94D0021F920F9233
:100260000FB60F921124F89478940F900FBE0F9050
:100270001F9018951F93CF93DF931F92CDB7DEB7D2
:10028000182F61E099830E94380381E08093100168
:1002900085E191E00E94D002612F79818091130164
:1002A000909114010F90DF91CF911F910C94120245
:1002B0001F920F920FB60F9211242F933F934F93DB
:1002C0005F936F937F938F939F93AF93BF93CF93DE
:1002D000DF93EF93FF93F8948091100181110DC08B
:1002E0008EE00E946E03019741F484E090E00E944A
:1002F0003A01109212011092110182E10E946E03E4
:10030000EC018130910531F480911101909112013D
:10031000892B41F183E10E946E03019779F480916A
:10032000130190911401DC01ED91FC910280F381A5
:10033000E02D099510921201109211017894FF910D
:10034000EF91DF91CF91BF91AF919F918F917F916D
:100350006F915F914F913F912F910F900FBE0F9032
:100360001F90189510921001809113019091140123
:10037000DC01ED91FC910190F081E02D09952FEFCA
:100380003FEFA90160E870E085E191E00E94B502CD
:10039000D0931201C0931101BDCFCF93DF93EC0135
:1003A0008C819D81009739F461E08BE00E943803D5
:1003B0008FE090E00BC01816190654F4CE010E948D
:1003C0000E0260E00E9438038AE090E09B878A87F3
:1003D0008C819D8101969D838C83DF91CF910895BF
:1003E000FC01158214820E940E0260E00C94380316
:1003F000FC01228533852150310933872287232B45
:1004000021F460E08BE00C94380308952AE031E099
:10041000FC0131832083158214820895FC018281BE
:1004200093810895FC017383628308951F920F9254
:100430000FB60F9211242F933F934F935F936F93B7
:100440007F938F939F93AF93BF93EF93FF93E0912D
:100450001901F0911A010995FF91EF91BF91AF91A8
:100460009F918F917F916F915F914F913F912F91CC
:100470000F900FBE0F901F901895FC01A3E0440F42
:10048000551F661F771FAA95D1F74115510581E0C9
:100490006807710514F481E00EC033E07595679527
:1004A000579547953A95D1F74115510581E0680771
:1004B00071051CF482E0828331C023E07595679555
:1004C000579547952A95D1F74115510581E0680761
:1004D000710514F483E0EFCF92E075956795579519
:1004E00047959A95D1F74115510581E06807710547
:1004F00014F484E0E0CF82E07595679557954795B1
:100500008A95D1F785E082834115510581E068071E
:10051000710524F04FEF5FEF60E070E08FB78383E9
:10052000F8945183408350938700409386008381E1
:100530008FBF80918100887F8093810080918100AE
:100540009281892B8093810008951092800020E190
:10055000209381000C943D02E1E8F0E02081DC0171
:1005600012968C91282B208308950F931F93CF937D
:10057000DF93EC018B01BA01A901141615061606CA
:10058000170614F40E943D021D830C8381E08093C2
:100590006F00CE01DF91CF911F910F910C94AC02AF
:1005A000E1E8F0E08081887F80830895833081F0E6
:1005B00028F4813099F08230A1F008958730A9F0B5
:1005C0008830B9F08430D1F4809180008F7D03C0F1
:1005D000809180008F7780938000089584B58F7715
:1005E00002C084B58F7D84BD08958091B0008F775F
:1005F00003C08091B0008F7D8093B0000895CF93A9
:10060000DF9390E0FC01E458FF4F2491FC01E05798
:10061000FF4F8491882349F190E0880F991FFC01D6
:10062000E854FF4FA591B49182559F4FFC01C591AD
:10063000D4919FB7611108C0F8948C9120958223C2
:100640008C93888182230AC0623051F4F8948C9193
:10065000322F309583238C938881822B888304C02A
:10066000F8948C91822B8C939FBFDF91CF9108954A
:100670000F931F93CF93DF931F92CDB7DEB7282F31
:1006800030E0F901E859FF4F8491F901E458FF4F38
:100690001491F901E057FF4F04910023C9F088231A
:1006A00021F069830E94D6026981E02FF0E0EE0F0D
:1006B000FF1FE255FF4FA591B4919FB7F8948C911D
:1006C000611103C01095812301C0812B8C939FBFC2
:1006D0000F90DF91CF911F910F910895CF93DF93EA
:1006E000282F30E0F901E859FF4F8491F901E458CF
:1006F000FF4FD491F901E057FF4FC491CC2391F003
:1007000081110E94D602EC2FF0E0EE0FFF1FEC5596
:10071000FF4FA591B4912C912D2381E090E021F41D
:1007200080E002C080E090E0DF91CF9108950895CD
:100730000E94F3030E9497030E94EA00C0E0D0E009
:100740000E948B002097E1F30E940000F9CF0C94E7
:100750002E041F920F920FB60F9211242F933F93E6
:100760008F939F93AF93BF9380911C0190911D0134
:10077000A0911E01B0911F0130911B0123E0230FB6
:100780002D3720F40196A11DB11D05C026E8230FC9
:100790000296A11DB11D20931B0180931C01909313
:1007A0001D01A0931E01B0931F0180912001909123
:1007B0002101A0912201B09123010196A11DB11D3B
:1007C0008093200190932101A0932201B0932301F3
:1007D000BF91AF919F918F913F912F910F900FBE3D
:1007E0000F901F901895789484B5826084BD84B56D
:1007F000816084BD85B5826085BD85B5816085BD1C
:10080000EEE6F0E0808181608083E1E8F0E0108234
:10081000808182608083808181608083E0E8F0E075
:10082000808181608083E1EBF0E08081846080835F
:10083000E0EBF0E0808181608083EAE7F0E0808196
:1008400084608083808182608083808181608083F6
:100850008081806880831092C1000895CF93DF93D8
:100860008230910510F482E090E0E0912601F09151
:10087000270120E030E0A0E0B0E0309739F140817E
:10088000518148175907B8F04817590771F4828108
:100890009381109729F013969C938E9312972CC0F6
:1008A000909327018093260127C02115310531F04F
:1008B0004217530718F0A901DB0101C0EF019A01AB
:1008C000BD01DF010280F381E02DD7CF2115310575
:1008D000F9F0281B390B2430310580F48A819B8183
:1008E0006115710521F0FB019383828304C090930D
:1008F000270180932601FE01329644C0FE01E20FDB
:10090000F31F8193919322503109398328833AC090
:100910002091240130912501232B41F420910201E3
:10092000309103013093250120932401209100018F
:10093000309101012115310541F42DB73EB74091A9
:10094000040150910501241B350BE0912401F09125
:100950002501E217F307A0F42E1B3F0B28173907D8
:1009600078F0AC014E5F5F4F2417350748F04E0F0B
:100970005F1F50932501409324018193919302C0FE
:10098000E0E0F0E0CF01DF91CF910895CF93DF93C6
:10099000009709F487C0FC01329713821282C0913C
:1009A0002601D0912701209781F420813181280FE1
:1009B000391F80912401909125018217930779F5C1
:1009C000F0932501E09324016DC0DE0120E030E0CA
:1009D000AE17BF0750F412964D915C9113979D018D
:1009E0004115510509F1DA01F3CFB383A2834081A8
:1009F0005181840F951F8A179B0771F48D919C91EB
:100A00001197840F951F02969183808312968D9182
:100A10009C911397938382832115310529F4F093D8
:100A20002701E09326013EC0D9011396FC93EE9373
:100A300012974D915D91A40FB51FEA17FB0779F44A
:100A400080819181840F951F0296D90111969C9304
:100A50008E938281938113969C938E931297E0E0FC
:100A6000F0E08A819B81009719F0FE01EC01F9CF3B
:100A7000CE01029628813981820F931F2091240193
:100A8000309125012817390769F4309729F410921D
:100A900027011092260102C013821282D0932501F1
:0E0AA000C0932401DF91CF910895F894FFCF09
:100AAE0000002801800000000000CD01F001F801D7
:00000001FF
