:100000000C9462000C947F000C947F000C944201CD
:100010000C94AA010C947F000C947F000C9494061D
:100020000C947F000C947F000C947F000C947F0054
:100030000C947F000C944E020C947F000C947F0073
:100040000C94F0060C947F000C947F000C947F00BD
:100050000C947F000C947F000C947F000C947F0024
:100060000C947F000C947F00000000080002010047
:100070000003040700000000000000000102040863
:100080001020408001020408102001020408102002
:10009000040404040404040402020202020203032E
:1000A00003030303000000002300260029000000D2
:1000B0000000250028002B0000000000240027007D
:1000C0002A00020011241FBECFEFD8E0DEBFCDBF53
:1000D00011E0A0E0B1E0E2EFF1E102C005900D9285
:1000E000A433B107D9F721E0A4E3B1E001C01D9228
:1000F000A136B207E1F70E943F040C94F7080C9474
:1001000000008091370190913801DC01ED91FC9164
:100110000480F581E02D09940895883038F08E3000
:1001200040F0863148F0E0E0F0E008C0EDE6F0E0B5
:1001300005C0EBE6F0E002C0ECE6F0E0908188302C
:1001400068F441E050E060E070E0082E04C0440F25
:10015000551F661F771F0A94D2F715C0482F50E02D
:100160009A018E3018F42850310902C02E503109FE
:1001700041E050E060E070E004C0440F551F661F8E
:10018000771F2A95D2F7492B40833BB3883050F034
:1001900021E08E3008F420E091E001C0990F2A950B
:1001A000EAF701C094E0932B9BBB20916800883054
:1001B00050F091E08E3008F490E081E001C0880FAB
:1001C0009A95EAF701C084E0822B80936800089535
:1001D0001F93CF93DF93CFE0D1E081E0C731D80701
:1001E00051F01881229660E0812F0E94A603812F92
:1001F0000E948D00F2CF61E084E00E94A60361E0DE
:1002000085E00E94A60361E086E00E94A60361E00B
:1002100087E00E94A60360E089E00E94A60360E0F8
:1002200088E00E94A60361E083E00E94A60389E0C3
:100230000E948D0088E00E948D0086E090E00E9480
:100240004E04EC010E947703D0933801C09337012C
:1002500086E090E00E944E04EC010E944802D09398
:100260003801C093370140E452E46FE070E089E365
:1002700091E00E94DD0289E391E0DF91CF911F912F
:100280000C9408031F920F920FB60F9211242F9314
:100290003F934F935F936F937F938F939F93AF930E
:1002A000BF93CF93DF93EF93FF93F89488E00E947E
:1002B0001504EC018130910531F480913501909164
:1002C0003601892B61F189E00E941504019799F4A8
:1002D00089E391E00E9408038091370190913801F1
:1002E000DC01ED91FC910280F381E02D09951092E3
:1002F0003601109235017894FF91EF91DF91CF9103
:10030000BF91AF919F918F917F916F915F914F912D
:100310003F912F910F900FBE0F901F901895109244
:1003200034018091370190913801DC01ED91FC910D
:100330000190F081E02D09952FEF3FEFA90161E8D1
:1003400070E089E391E00E94ED02D0933601C09302
:100350003501B9CF1F920F920FB60F9211240F9350
:100360001F932F933F934F935F936F937F938F933D
:100370009F93AF93BF93CF93DF93EF93FF93F89443
:100380008091340181113BC08091350190913601FB
:10039000892B59F48091370190913801DC01ED915E
:1003A000FC910680F781E02D09950FE011E0C0E097
:1003B000D0E0F80180810E5F1F4F0E941504019765
:1003C000D1F48091370190913801DC01ED91FC91DD
:1003D000CC0FDD1FC95FDE4F688179810084F18514
:1003E000E02D40913401099580933401109236013B
:1003F0001092350104C02196C430D105D1F678940D
:10040000FF91EF91DF91CF91BF91AF919F918F912C
:100410007F916F915F914F913F912F911F910F911C
:100420000F900FBE0F901F901895FC018281938151
:100430000895FC01738362830895089508950895D3
:100440000E94150260E00C94DF030F931F93CF937B
:10045000DF93EC01162F072F61E0812F0E94DF034D
:1004600024EF31E040E050E06CED75E083E00E9465
:10047000500489E391E00E940803612F702FCE01A0
:100480000E94190280E0DF91CF911F910F91089592
:100490002BE131E0FC013183208308951F920F92FC
:1004A0000FB60F9211242F933F934F935F936F9347
:1004B0007F938F939F93AF93BF93EF93FF93E091BD
:1004C0003D01F0913E010995FF91EF91BF91AF91F0
:1004D0009F918F917F916F915F914F913F912F915C
:1004E0000F900FBE0F901F901895FC01A3E0440FD2
:1004F000551F661F771FAA95D1F74115510581E059
:100500006807710514F481E00EC033E075956795B6
:10051000579547953A95D1F74115510581E0680700
:1005200071051CF482E0828331C023E075956795E4
:10053000579547952A95D1F74115510581E06807F0
:10054000710514F483E0EFCF92E0759567955795A8
:1005500047959A95D1F74115510581E068077105D6
:1005600014F484E0E0CF82E0759567955795479540
:100570008A95D1F785E082834115510581E06807AE
:10058000710524F04FEF5FEF60E070E08FB7838379
:10059000F894518340835093870040938600838171
:1005A0008FBF80918100887F80938100809181003E
:1005B0009281892B8093810008951092800020E120
:1005C000209381000C947502E1E8F0E02081DC01C9
:1005D00012968C91282B208308950F931F93CF930D
:1005E000DF93EC018B01BA01A9011416150616065A
:1005F000170614F40E9475021D830C8381E080931A
:100600006F00CE01DF91CF911F910F910C94E40206
:10061000E1E8F0E08081887F808308950895CF939A
:10062000DF93EC0124EF31E040E050E060ED77E053
:1006300083E00E9450048CE390E09D838C83DF91E3
:10064000CF9108950E94150260E00C94DF03CF93D0
:10065000DF93EC012C813D81215031093D832C83B6
:10066000232B49F424EF31E040E050E060ED77E0E7
:1006700083E00E9450048C819D81099759F424EFF6
:1006800031E040E050E060ED77E083E0DF91CF9132
:100690000C945004DF91CF9108950F931F93CF9343
:1006A000DF93EC01162F072F2C813D812B33310571
:1006B000C4F061E0812F0E94DF0324EF31E040E0CD
:1006C00050E06CED75E083E00E94500489E391E016
:1006D0000E940803612F702FCE010E94190281E051
:1006E00001C080E0DF91CF911F910F91089529E221
:1006F00031E0FC01318320830895833081F028F4B8
:10070000813099F08230A1F008958730A9F08830C7
:10071000B9F08430D1F4809180008F7D03C0809146
:1007200080008F7780938000089584B58F7702C012
:1007300084B58F7D84BD08958091B0008F7703C00C
:100740008091B0008F7D8093B0000895CF93DF93A8
:1007500090E0FC01E458FF4F2491FC01E057FF4F6B
:100760008491882349F190E0880F991FFC01E85497
:10077000FF4FA591B49182559F4FFC01C591D49133
:100780009FB7611108C0F8948C91209582238C93B7
:10079000888182230AC0623051F4F8948C91322F00
:1007A000309583238C938881822B888304C0F894AE
:1007B0008C91822B8C939FBFDF91CF9108950F93E3
:1007C0001F93CF93DF931F92CDB7DEB7282F30E072
:1007D000F901E859FF4F8491F901E458FF4F149152
:1007E000F901E057FF4F04910023C9F0882321F05D
:1007F00069830E947D036981E02FF0E0EE0FFF1F07
:10080000E255FF4FA591B4919FB7F8948C91611177
:1008100003C01095812301C0812B8C939FBF0F9043
:10082000DF91CF911F910F910895CF93DF93282FE0
:1008300030E0F901E859FF4F8491F901E458FF4F86
:10084000D491F901E057FF4FC491CC2391F081116D
:100850000E947D03EC2FF0E0EE0FFF1FEC55FF4FE1
:10086000A591B4912C912D2381E090E021F480E0BA
:1008700002C080E090E0DF91CF91089508950E943A
:100880003A070E943E040E94E800C0E0D0E00E94C7
:100890008C002097E1F30E940000F9CF0C94D00760
:1008A0003F924F925F926F927F928F929F92AF9200
:1008B000BF92CF92DF92EF92FF920F931F93CF934D
:1008C000DF9300D000D0CDB7DEB78B0129013A010C
:1008D00090910601981721F09F3F09F0DAC104C0FA
:1008E000E2ECF0E0349081C080930601E2ECF0E0AD
:1008F000E491EF3F09F4CDC1E13031F1E23009F488
:100900004BC0E11171C014BC15BC94B5926094BD8C
:1009100095B5916095BD282F30E0F901E057FF4F64
:10092000E491F0E0EE0FFF1FE255FF4F4591549127
:1009300050934F0140934E01F901E458FF4F249129
:1009400020934D01312C53C01092800010928100F1
:1009500090918100986090938100909181009160C6
:1009600090938100282F30E0F901E057FF4FE49188
:10097000F0E0EE0FFF1FE255FF4F45915491509369
:10098000480140934701F901E458FF4F2491209317
:100990004601332433942BC01092B0001092B10062
:1009A0009091B00092609093B0009091B1009160EE
:1009B0009093B100282F30E0F901E057FF4FE49108
:1009C000F0E0EE0FFF1FE255FF4F45915491509319
:1009D000410140934001F901E458FF4F24912093D5
:1009E0003F0152E0352E03C03E2E37FC52C161E07C
:1009F0000E94A6034801A12CB12C832D8D7F09F004
:100A0000C7C060E072E18AE790E0A50194010E940E
:100A1000970729833A834B835C8369017A0181E0DC
:100A2000C81AD108E108F1089FEFC916D104E10402
:100A3000F10409F008F49AC060E472E48FE090E0F9
:100A4000A50194010E94970769017A01E1E0CE1A9D
:100A5000D108E108F108F2E03F1219C08FEFC81683
:100A6000D104E104F10409F008F48AC060E970EDF2
:100A700083E090E0A50194010E94970769017A0143
:100A800091E0C91AD108E108F10883E001C082E0D1
:100A9000EFEFCE16D104E104F10409F008F467C0C9
:100AA00068E478EE81E090E0A50194010E94970748
:100AB00069017A01F1E0CF1AD108E108F108332089
:100AC000E1F082E038121BC09FEFC916D104E104A7
:100AD000F10409F008F4DBC064E274EF80E090E018
:100AE000A50194010E94970769017A01E1E0CE1AFD
:100AF000D108E108F10885E003C083E001C084E08B
:100B0000FFEFCF16D104E104F10489F180F162E135
:100B10007AE780E090E0A50194010E9497076901BF
:100B20007A0181E0C81AD108E108F108311002C049
:100B300084E001C086E09FEFC916D104E104F1040E
:100B4000B1F0A8F0C980DA80EB80FC809AE0F594DF
:100B5000E794D794C7949A95D1F7E1E0CE1AD108DB
:100B6000E108F108332031F087E00BC081E0332049
:100B700011F007C085E095B5987F982B95BD38C0DA
:100B800082E09091B100987F982B9093B10030C093
:100B900060E072E18AE790E0A50194010E94970766
:100BA00069017A01F1E0CF1AD108E108F108C11416
:100BB000D10481E0E806F10488F068E478EE81E091
:100BC00090E0A50194010E94970769017A0191E0E4
:100BD000C91AD108E108F10893E001C091E0E1E011
:100BE0003E1206C080918100887F892B809381000E
:100BF000411451046104710471F0D801AA0FBB1FA4
:100C0000A30192010E94B60728EE33E040E050E0D5
:100C10000E94750703C02FEF3FEFA901F1E03F16D7
:100C2000A1F082E0381619F1311033C0C7BC20930F
:100C300050013093510140935201509353018091E0
:100C40006E00826080936E0024C0D0928900C092B2
:100C500088002093490130934A0140934B015093FF
:100C60004C0180916F00826080936F0012C0C0922F
:100C7000B3002093420130934301409344015093C9
:100C800045018091700082608093700002C084E012
:100C900078CF0F900F900F900F90DF91CF911F9111
:100CA0000F91FF90EF90DF90CF90BF90AF909F900B
:100CB0008F907F906F905F904F903F90089581301C
:100CC00039F018F0823051F0089510926E000895B6
:100CD00080916F008D7F80936F00089580917000E8
:100CE0008D7F8093700081E08093B0008091B1008F
:100CF000887F84608093B1001092B3000895CF93F1
:100D0000C82F809106018C1307C0E2ECF0E08491BB
:100D10009FEF9093060101C08FEF0E945F0660E095
:100D20008C2FCF910C94DF031F920F920FB60F926E
:100D300011242F933F934F935F936F937F938F93E0
:100D40009F93AF93BF93EF93FF9380914201909154
:100D50004301A0914401B0914501892B8A2B8B2B33
:100D600051F190913F01E0914001F091410180816A
:100D7000892780838091420190914301A091440191
:100D8000B0914501181619061A061B06C4F4809185
:100D9000420190914301A0914401B0914501019716
:100DA000A109B1098093420190934301A0934401AA
:100DB000B093450104C0809106010E947F06FF9117
:100DC000EF91BF91AF919F918F917F916F915F91C3
:100DD0004F913F912F910F900FBE0F901F9018953C
:100DE0001F920F920FB60F9211242F933F938F9360
:100DF0009F93AF93BF938091550190915601A0911D
:100E00005701B09158013091540123E0230F2D3741
:100E100020F40196A11DB11D05C026E8230F0296FE
:100E2000A11DB11D2093540180935501909356014B
:100E3000A0935701B09358018091590190915A01A4
:100E4000A0915B01B0915C010196A11DB11D809341
:100E5000590190935A01A0935B01B0935C01BF913B
:100E6000AF919F918F913F912F910F900FBE0F9057
:100E70001F901895789484B5826084BD84B5816094
:100E800084BD85B5826085BD85B5816085BDEEE692
:100E9000F0E0808181608083E1E8F0E01082808171
:100EA00082608083808181608083E0E8F0E08081DF
:100EB00081608083E1EBF0E0808184608083E0EBFF
:100EC000F0E0808181608083EAE7F0E080818460E7
:100ED0008083808182608083808181608083808143
:100EE000806880831092C1000895A1E21A2EAA1B87
:100EF000BB1BFD010DC0AA1FBB1FEE1FFF1FA217CA
:100F0000B307E407F50720F0A21BB30BE40BF50BC6
:100F1000661F771F881F991F1A9469F7609570954F
:100F2000809590959B01AC01BD01CF010895052EE0
:100F300097FB1EF400940E94AE0757FD07D00E9455
:100F4000750707FC03D04EF40C94AE0750954095FE
:100F5000309521953F4F4F4F5F4F08959095809565
:100F6000709561957F4F8F4F9F4F08950E94C107E5
:100F7000A59F900DB49F900DA49F800D911D1124ED
:100F80000895A29FB001B39FC001A39F700D811D62
:100F90001124911DB29F700D811D1124911D089582
:100FA000CF93DF938230910510F482E090E0E091DE
:100FB0005F01F091600120E030E0A0E0B0E0309708
:100FC00039F14081518148175907B8F0481759073E
:100FD00071F482819381109729F013969C938E93DC
:100FE00012972CC09093600180935F0127C0211558
:100FF000310531F04217530718F0A901DB0101C098
:10100000EF019A01BD01DF010280F381E02DD7CF0E
:1010100021153105F9F0281B390B2430310580F4F6
:101020008A819B816115710521F0FB019383828385
:1010300004C09093600180935F01FE01329644C02A
:10104000FE01E20FF31F81939193225031093983FE
:1010500028833AC020915D0130915E01232B41F439
:10106000209102013091030130935E0120935D01D4
:1010700020910001309101012115310541F42DB776
:101080003EB74091040150910501241B350BE091BE
:101090005D01F0915E01E217F307A0F42E1B3F0BF8
:1010A0002817390778F0AC014E5F5F4F24173507DA
:1010B00048F04E0F5F1F50935E0140935D01819396
:1010C000919302C0E0E0F0E0CF01DF91CF9108956D
:1010D000CF93DF93009709F487C0FC013297138206
:1010E0001282C0915F01D0916001209781F420812C
:1010F0003181280F391F80915D0190915E01821727
:10110000930779F5F0935E01E0935D016DC0DE0118
:1011100020E030E0AE17BF0750F412964D915C917D
:1011200013979D014115510509F1DA01F3CFB383FE
:10113000A28340815181840F951F8A179B0771F408
:101140008D919C911197840F951F029691838083B6
:1011500012968D919C91139793838283211531056B
:1011600029F4F0936001E0935F013EC0D90113962A
:10117000FC93EE9312974D915D91A40FB51FEA1762
:10118000FB0779F480819181840F951F0296D90124
:1011900011969C938E938281938113969C938E9348
:1011A0001297E0E0F0E08A819B81009719F0FE0140
:1011B000EC01F9CFCE01029628813981820F931F6D
:1011C00020915D0130915E012817390769F430974D
:1011D00029F41092600110925F0102C01382128202
:1011E000D0935E01C0935D01DF91CF910895F89493
:0211F000FFCF2F
:1011F200000061018000FF04000500060007000EE8
:10120200000F0010001100000000001D0220021E4D
:10121200021F022502000000000F03220327030E13
:04122200034D030075
:00000001FF
