:100000000C9461000C947E000C947E000C943101E1
:100010000C948A010C947E000C947E000C947E005B
:100020000C947E000C947E000C947E000C947E0058
:100030000C947E000C94EC010C947E000C947E00D9
:100040000C947F030C947E000C947E000C947E0034
:100050000C947E000C947E000C947E000C947E0028
:100060000C947E000C947E00000000080002010049
:100070000003040700000000000000000102040863
:100080001020408001020408102001020408102002
:10009000040404040404040402020202020203032E
:1000A00003030303000000002300260029000000D2
:1000B0000000250028002B0000000000240027007D
:1000C0002A0011241FBECFEFD8E0DEBFCDBF11E064
:1000D000A0E0B1E0EAE5FAE002C005900D92A0329E
:1000E000B107D9F721E0A0E2B1E001C01D92A6332B
:1000F000B207E1F70E946E030C942B050C940000EC
:100100008091210190912201DC01ED91FC9104800C
:10011000F581E02D099461E08DE00C940E038830A8
:1001200038F08E3040F0863148F0E0E0F0E008C072
:10013000EDE6F0E005C0EBE6F0E002C0ECE6F0E052
:100140009081883068F441E050E060E070E0082E73
:1001500004C0440F551F661F771F0A94D2F715C0BD
:10016000482F50E09A018E3018F42850310902C00F
:100170002E50310941E050E060E070E004C0440FCF
:10018000551F661F771F2A95D2F7492B40833BB333
:10019000883050F021E08E3008F420E091E001C07A
:1001A000990F2A95EAF701C094E0932B9BBB20910D
:1001B0006800883050F091E08E3008F490E081E0E3
:1001C00001C0880F9A95EAF701C084E0822B8093E2
:1001D000680008951F93CF93DF93CEE0D1E081E0D4
:1001E000C631D80751F01881229660E0812F0E9415
:1001F000D502812F0E948F00F2CF61E084E00E943F
:10020000D50261E085E00E94D50261E086E00E94AF
:10021000D50261E087E00E94D50260E089E00E949B
:10022000D50260E088E00E94D50289E00E948F003C
:1002300088E00E948F0088E090E00E947D03EC013E
:100240000E94E401D0932201C093210140E452E4D2
:100250006FE070E083E291E0DF91CF911F910C9409
:100260007B021F920F920FB60F9211242F933F9390
:100270004F935F936F937F938F939F93AF93BF93AE
:10028000EF93FF93F89488E00E9444030197B1F440
:10029000109220018091210190912201DC01ED91C9
:1002A000FC910190F081E02D09952FEF3FEFA9011E
:1002B00060E870E083E291E00E948B0289E00E9496
:1002C0004403019759F48091210190912201DC01AE
:1002D000ED91FC910280F381E02D09957894FF91D6
:1002E000EF91BF91AF919F918F917F916F915F91AE
:1002F0004F913F912F910F900FBE0F901F90189527
:1003000061E00E940E0381E08093200183E291E08E
:100310000C94A6021F920F920FB60F9211240F9306
:100320001F932F933F934F935F936F937F938F937D
:100330009F93AF93BF93CF93DF93EF93FF93F89483
:1003400080912001811119C00EE011E0C0E0D0E0E1
:10035000F80180810E5F1F4F0E944403019749F40A
:10036000CC0FDD1FCA5FDE4F888199810E9480011A
:1003700004C02196C430D10559F77894FF91EF91CC
:10038000DF91CF91BF91AF919F918F917F916F91AD
:100390005F914F913F912F911F910F910F900FBE41
:1003A0000F901F901895FC018AE090E09783868358
:1003B00084E190E095838483828193810196938385
:1003C00082830895089508952AE131E0FC01318384
:1003D00020831382128208951F920F920FB60F92FC
:1003E00011242F933F934F935F936F937F938F933A
:1003F0009F93AF93BF93EF93FF93E0912701F09109
:1004000028010995FF91EF91BF91AF919F918F9135
:100410007F916F915F914F913F912F910F900FBE00
:100420000F901F901895FC01A3E0440F551F661F05
:10043000771FAA95D1F74115510581E0680771052D
:1004400014F481E00EC033E0759567955795479594
:100450003A95D1F74115510581E0680771051CF403
:1004600082E0828331C023E0759567955795479563
:100470002A95D1F74115510581E06807710514F4FB
:1004800083E0EFCF92E075956795579547959A95DC
:10049000D1F74115510581E06807710514F484E036
:1004A000E0CF82E075956795579547958A95D1F786
:1004B00085E082834115510581E06807710524F0CC
:1004C0004FEF5FEF60E070E08FB78383F894518364
:1004D0004083509387004093860083818FBF809133
:1004E0008100887F80938100809181009281892B97
:1004F0008093810008951092800020E12093810074
:100500000C941302E1E8F0E02081DC0112968C915A
:10051000282B208308950F931F93CF93DF93EC0133
:100520008B01BA01A901141615061606170614F454
:100530000E9413021D830C8381E080936F00CE0123
:10054000DF91CF911F910F910C948202E1E8F0E0CE
:100550008081887F80830895833081F028F4813002
:1005600099F08230A1F008958730A9F08830B9F071
:100570008430D1F4809180008F7D03C08091800011
:100580008F7780938000089584B58F7702C084B5FB
:100590008F7D84BD08958091B0008F7703C08091D6
:1005A000B0008F7D8093B0000895CF93DF9390E0EB
:1005B000FC01E458FF4F2491FC01E057FF4F849168
:1005C000882349F190E0880F991FFC01E854FF4F00
:1005D000A591B49182559F4FFC01C591D4919FB7CD
:1005E000611108C0F8948C91209582238C938881A6
:1005F00082230AC0623051F4F8948C91322F3095E6
:1006000083238C938881822B888304C0F8948C91F7
:10061000822B8C939FBFDF91CF9108950F931F93EF
:10062000CF93DF931F92CDB7DEB7282F30E0F901CB
:10063000E859FF4F8491F901E458FF4F1491F901F3
:10064000E057FF4F04910023C9F0882321F069830C
:100650000E94AC026981E02FF0E0EE0FFF1FE2552F
:10066000FF4FA591B4919FB7F8948C91611103C08D
:100670001095812301C0812B8C939FBF0F90DF9138
:10068000CF911F910F910895CF93DF93282F30E0E2
:10069000F901E859FF4F8491F901E458FF4FD491D3
:1006A000F901E057FF4FC491CC2391F081110E94D2
:1006B000AC02EC2FF0E0EE0FFF1FEC55FF4FA591C1
:1006C000B4912C912D2381E090E021F480E002C0D0
:1006D00080E090E0DF91CF91089508950E94C903D2
:1006E0000E946D030E94EA00C0E0D0E00E948B00EF
:1006F0002097E1F30E940000F9CF0C9404041F92AC
:100700000F920FB60F9211242F933F938F939F93C5
:10071000AF93BF9380912A0190912B01A0912C015E
:10072000B0912D013091290123E0230F2D3720F4C2
:100730000196A11DB11D05C026E8230F0296A11D3B
:10074000B11D2093290180932A0190932B01A0933E
:100750002C01B0932D0180912E0190912F01A09139
:100760003001B09131010196A11DB11D80932E0180
:1007700090932F01A0933001B0933101BF91AF91BD
:100780009F918F913F912F910F900FBE0F901F90CF
:100790001895789484B5826084BD84B5816084BDE9
:1007A00085B5826085BD85B5816085BDEEE6F0E0EA
:1007B000808181608083E1E8F0E010828081826046
:1007C0008083808181608083E0E8F0E080818160C7
:1007D0008083E1EBF0E0808184608083E0EBF0E0F7
:1007E000808181608083EAE7F0E08081846080839B
:1007F0008081826080838081816080838081806845
:1008000080831092C1000895CF93DF9382309105C9
:1008100010F482E090E0E0913401F091350120E0A5
:1008200030E0A0E0B0E0309739F1408151814817C5
:100830005907B8F04817590771F4828193811097CE
:1008400029F013969C938E9312972CC090933501A8
:100850008093340127C02115310531F04217530729
:1008600018F0A901DB0101C0EF019A01BD01DF0110
:100870000280F381E02DD7CF21153105F9F0281B37
:10088000390B2430310580F48A819B816115710513
:1008900021F0FB019383828304C090933501809300
:1008A0003401FE01329644C0FE01E20FF31F819332
:1008B000919322503109398328833AC02091320123
:1008C00030913301232B41F4209102013091030137
:1008D00030933301209332012091000130910101C6
:1008E0002115310541F42DB73EB7409104015091D7
:1008F0000501241B350BE0913201F0913301E21721
:10090000F307A0F42E1B3F0B2817390778F0AC0132
:100910004E5F5F4F2417350748F04E0F5F1F50930F
:100920003301409332018193919302C0E0E0F0E003
:10093000CF01DF91CF910895CF93DF93009709F412
:1009400087C0FC01329713821282C0913401D0918A
:100950003501209781F420813181280F391F809142
:100960003201909133018217930779F5F0933301A7
:10097000E09332016DC0DE0120E030E0AE17BF072A
:1009800050F412964D915C9113979D0141155105BC
:1009900009F1DA01F3CFB383A28340815181840F3F
:1009A000951F8A179B0771F48D919C911197840F65
:1009B000951F02969183808312968D919C91139737
:1009C000938382832115310529F4F0933501E09357
:1009D00034013EC0D9011396FC93EE9312974D91CA
:1009E0005D91A40FB51FEA17FB0779F4808191810F
:1009F000840F951F0296D90111969C938E93828144
:100A0000938113969C938E931297E0E0F0E08A8195
:100A10009B81009719F0FE01EC01F9CFCE010296FF
:100A200028813981820F931F209132013091330147
:100A30002817390769F4309729F41092350110927C
:100A4000340102C013821282D0933301C093320169
:0A0A5000DF91CF910895F894FFCFD5
:100A5A0000003601800004000500060007000E00B1
:100A6A000F001000110000000000D301E301E201B1
:00000001FF
