:100000000C9462000C947F000C947F000C9480018F
:100010000C94E1010C947F000C947F000C94700709
:100020000C947F000C947F000C947F000C947F0054
:100030000C947F000C942A030C947F000C947F0096
:100040000C94CC070C947F000C947F000C947F00E0
:100050000C947F000C947F000C947F000C947F0024
:100060000C947F000C947F00000000080002010047
:100070000003040700000000000000000102040863
:100080001020408001020408102001020408102002
:10009000040404040404040402020202020203032E
:1000A00003030303000000002300260029000000D2
:1000B0000000250028002B0000000000240027007D
:1000C0002A00020011241FBECFEFD8E0DEBFCDBF53
:1000D00011E0A0E0B1E0EAEAF3E102C005900D9280
:1000E000A234B107D9F721E0A2E4B1E001C01D922A
:1000F000AD36B207E1F70E941B050C94D3090C94AE
:1001000000008091430190914401DC01ED91FC914C
:100110000480F581E02D09940895883038F08E3000
:1001200040F0863148F0E0E0F0E008C0EDE6F0E0B5
:1001300005C0EBE6F0E002C0ECE6F0E0908188302C
:1001400068F441E050E060E070E0082E04C0440F25
:10015000551F661F771F0A94D2F715C0482F50E02D
:100160009A018E3018F42850310902C02E503109FE
:1001700041E050E060E070E004C0440F551F661F8E
:10018000771F2A95D2F7492B40833BB3883050F034
:1001900021E08E3008F420E091E001C0990F2A950B
:1001A000EAF701C094E0932B9BBB20916800883054
:1001B00050F091E08E3008F490E081E001C0880FAB
:1001C0009A95EAF701C084E0822B80936800089535
:1001D0001F93CF93DF93CFE0D1E081E0C731D80701
:1001E00051F01881229660E0812F0E948204812FB5
:1001F0000E948D00F2CF61E084E00E94820461E001
:1002000085E00E94820461E086E00E94820461E051
:1002100087E00E94820460E089E00E94820460E03E
:1002200088E00E94820460E08AE00E94820460E02C
:100230008BE00E94820460E08CE00E94820461E016
:1002400083E00E94820489E00E948D0088E00E9481
:100250008D008AE00E94F10405977CF08DE090E02B
:100260000E942A05EC010E94E302D0934401C0934E
:10027000430161E084E00E94BB048BE00E94F10432
:1002800002977CF087E090E00E942A05EC010E9432
:100290005104D0934401C093430161E085E00E9482
:1002A000BB048CE00E94F104059784F087E090E0A5
:1002B0000E942A05EC010E942203D0934401C093BE
:1002C000430161E086E00E94BB040BC08DE090E03A
:1002D0000E942A05EC010E94E302D0934401C093DE
:1002E000430140E452E46FE070E085E491E00E9455
:1002F000B90385E491E0DF91CF911F910C94E40361
:100300001F920F920FB60F9211242F933F934F938A
:100310005F936F937F938F939F93AF93BF93EF936D
:10032000FF93F8941092420188E00E94F104019733
:10033000D9F48091430190914401DC01ED91FC914D
:100340000190F081E02D09952FEF3FEFA90161E8C1
:1003500070E085E491E00E94C90360E08091430170
:10036000909144010E94F80289E00E94F1040197F3
:10037000B1F485E491E00E94E403809143019091FF
:100380004401DC01ED91FC910280F381E02D09959F
:1003900061E080914301909144010E94F8027894B9
:1003A000FF91EF91BF91AF919F918F917F916F914D
:1003B0005F914F913F912F910F900FBE0F901F9023
:1003C00018951F920F920FB60F9211240F931F933F
:1003D0002F933F934F935F936F937F938F939F934D
:1003E000AF93BF93CF93DF93EF93FF93F8948091F4
:1003F00042018823B1F07894FF91EF91DF91CF9182
:10040000BF91AF919F918F917F916F915F914F912C
:100410003F912F911F910F910F900FBE0F901F9042
:100420001895CFE0D1E007E011E0B1E0C731DB077C
:1004300011F3888122960E94F104019781F4809142
:10044000430190914401DC01ED91FC91D8016D9143
:100450007C910084F185E02D0995809342010E5F27
:100460001F4FE3CF24EF31E040E050E068EC70E054
:1004700083E00C942C05CF93DF93EC018D819E815A
:100480000097A1F424EF31E040E050E060ED77E028
:1004900083E00E942C0584E190E09C878B87CE014D
:1004A0000E94ED0260E00E94BB0419C00197B9F4FC
:1004B00024EF31E040E050E060ED77E083E00E941F
:1004C0002C05CE010E94ED0260E00E94BB0461E0B9
:1004D00084E00E94BB048AE090E09C878B878D813A
:1004E0009E8101969E838D83DF91CF910895FC01BB
:1004F0001682158260E084E00E94BB0460E085E023
:100500000E94BB0460E086E00E94BB0460E087E0DC
:100510000E94BB0460E08DE00C94BB04CF93DF939A
:10052000EC012B853C85215031093C872B87232BFF
:1005300079F424EF31E040E050E060ED77E083E0D3
:100540000E942C0561E0CE01DF91CF910C94F8025E
:10055000DF91CF910895EF92FF921F93CF93DF9396
:100560001F92CDB7DEB77C01162F61E0812F798312
:100570000E94BB04612F7981C7010E94F102C7016B
:100580000E94F502882351F0D701ED91FC9106807D
:10059000F781E02DC701099580E00EC024EF31E01E
:1005A00040E050E06CED75E083E00E942C0585E4AE
:1005B00091E00E94E40381E00F90DF91CF911F91C1
:1005C000FF90EF900895FC0181E084838BE191E03E
:1005D00091838083168215820895FC018281938124
:1005E0000895FC01738362830895FC01848108955A
:1005F000FC01648308950895089508950E94ED0212
:1006000060E00C94BB040F931F93CF93DF93EC0136
:10061000162F072F61E0812F0E94BB0424EF31E0E9
:1006200040E050E06CED75E083E00E942C05612F06
:10063000702FCE010E94F10281E0DF91CF911F91D6
:100640000F91089521E0FC01248329E231E03183F8
:10065000208308951F920F920FB60F9211242F93AB
:100660003F934F935F936F937F938F939F93AF933A
:10067000BF93EF93FF93E0914901F0914A010995EF
:10068000FF91EF91BF91AF919F918F917F916F916A
:100690005F914F913F912F910F900FBE0F901F9040
:1006A0001895FC01A3E0440F551F661F771FAA95FC
:1006B000D1F74115510581E06807710514F481E017
:1006C0000EC033E075956795579547953A95D1F7E4
:1006D0004115510581E0680771051CF482E08283B1
:1006E00031C023E075956795579547952A95D1F7C1
:1006F0004115510581E06807710514F483E0EFCFDF
:1007000092E075956795579547959A95D1F741155C
:10071000510581E06807710514F484E0E0CF82E0C0
:1007200075956795579547958A95D1F785E08283AA
:100730004115510581E06807710524F04FEF5FEF27
:1007400060E070E08FB78383F894518340835093C7
:1007500087004093860083818FBF80918100887FCE
:1007600080938100809181009281892B8093810008
:1007700008951092800020E1209381000C94510391
:10078000E1E8F0E02081DC0112968C91282B208397
:1007900008950F931F93CF93DF93EC018B01BA0160
:1007A000A901141615061606170614F40E94510323
:1007B0001D830C8381E080936F00CE01DF91CF9188
:1007C0001F910F910C94C003E1E8F0E08081887FD5
:1007D000808308950895CF93DF93EC0124EF31E0F7
:1007E00040E050E060ED77E083E00E942C058CE370
:1007F00090E09E838D83DF91CF9108950E94ED025A
:1008000060E00C94BB04CF93DF93EC012D813E811B
:10081000215031093E832D83232B49F424EF31E00D
:1008200040E050E060ED77E083E00E942C058D8190
:100830009E81099759F424EF31E040E050E060EDEB
:1008400077E083E0DF91CF910C942C05DF91CF917D
:1008500008950F931F93CF93DF93EC01162F072F6B
:100860002D813E812B333105B4F061E0812F0E9450
:10087000BB0424EF31E040E050E06CED75E083E034
:100880000E942C0585E491E00E94E403612F702F03
:10089000CE010E94F10281E0DF91CF911F910F9173
:1008A000089521E0FC01248327E331E03183208394
:1008B0000895833081F028F4813099F08230A1F0DE
:1008C00008958730A9F08830B9F08430D1F4809150
:1008D00080008F7D03C0809180008F77809380009F
:1008E000089584B58F7702C084B58F7D84BD089547
:1008F0008091B0008F7703C08091B0008F7D80938E
:10090000B0000895CF93DF9390E0FC01E458FF4FCF
:100910002491FC01E057FF4F8491882349F190E036
:10092000880F991FFC01E854FF4FA591B49182559F
:100930009F4FFC01C591D4919FB7611108C0F894F5
:100940008C91209582238C93888182230AC0623007
:1009500051F4F8948C91322F309583238C938881B5
:10096000822B888304C0F8948C91822B8C939FBF38
:10097000DF91CF9108950F931F93CF93DF931F9231
:10098000CDB7DEB7282F30E0F901E859FF4F849149
:10099000F901E458FF4F1491F901E057FF4F04911A
:1009A0000023C9F0882321F069830E9459046981DA
:1009B000E02FF0E0EE0FFF1FE255FF4FA591B4913D
:1009C0009FB7F8948C91611103C01095812301C0E9
:1009D000812B8C939FBF0F90DF91CF911F910F912F
:1009E0000895CF93DF93282F30E0F901E859FF4FA6
:1009F0008491F901E458FF4FD491F901E057FF4F7A
:100A0000C491CC2391F081110E945904EC2FF0E0A5
:100A1000EE0FFF1FEC55FF4FA591B4912C912D23A4
:100A200081E090E021F480E002C080E090E0DF917E
:100A3000CF91089508950E9416080E941A050E94F9
:100A4000E800C0E0D0E00E948C002097E1F30E9413
:100A50000000F9CF0C94AC083F924F925F926F92D6
:100A60007F928F929F92AF92BF92CF92DF92EF923E
:100A7000FF920F931F93CF93DF9300D000D0CDB799
:100A8000DEB78B0129013A0190910601981721F0F8
:100A90009F3F09F0DAC104C0E2ECF0E0349081C07D
:100AA00080930601E2ECF0E0E491EF3F09F4CDC160
:100AB000E13031F1E23009F44BC0E11171C014BCF6
:100AC00015BC94B5926094BD95B5916095BD282FE5
:100AD00030E0F901E057FF4FE491F0E0EE0FFF1F27
:100AE000E255FF4F4591549150935B0140935A0159
:100AF000F901E458FF4F249120935901312C53C040
:100B000010928000109281009091810098609093E3
:100B1000810090918100916090938100282F30E0B6
:100B2000F901E057FF4FE491F0E0EE0FFF1FE255AF
:100B3000FF4F459154915093540140935301F90153
:100B4000E458FF4F249120935201332433942BC057
:100B50001092B0001092B1009091B000926090930A
:100B6000B0009091B10091609093B100282F30E0D7
:100B7000F901E057FF4FE491F0E0EE0FFF1FE2555F
:100B8000FF4F4591549150934D0140934C01F90111
:100B9000E458FF4F249120934B0152E0352E03C0BF
:100BA0003E2E37FC52C161E00E9482044801A12C14
:100BB000B12C832D8D7F09F0C7C060E072E18AE718
:100BC00090E0A50194010E94730829833A834B8326
:100BD0005C8369017A0181E0C81AD108E108F10853
:100BE0009FEFC916D104E104F10409F008F49AC09A
:100BF00060E472E48FE090E0A50194010E94730824
:100C000069017A01E1E0CE1AD108E108F108F2E0C9
:100C10003F1219C08FEFC816D104E104F10409F0A6
:100C200008F48AC060E970ED83E090E0A5019401CA
:100C30000E94730869017A0191E0C91AD108E1089C
:100C4000F10883E001C082E0EFEFCE16D104E104A9
:100C5000F10409F008F467C068E478EE81E090E000
:100C6000A50194010E94730869017A01F1E0CF1A8D
:100C7000D108E108F1083320E1F082E038121BC00E
:100C80009FEFC916D104E104F10409F008F4DBC0B8
:100C900064E274EF80E090E0A50194010E94730883
:100CA00069017A01E1E0CE1AD108E108F10885E096
:100CB00003C083E001C084E0FFEFCF16D104E1045C
:100CC000F10489F180F162E17AE780E090E0A5012A
:100CD00094010E94730869017A0181E0C81AD10861
:100CE000E108F108311002C084E001C086E09FEF06
:100CF000C916D104E104F104B1F0A8F0C980DA808A
:100D0000EB80FC809AE0F594E794D794C7949A9589
:100D1000D1F7E1E0CE1AD108E108F108332031F033
:100D200087E00BC081E0332011F007C085E095B566
:100D3000987F982B95BD38C082E09091B100987F44
:100D4000982B9093B10030C060E072E18AE790E0A8
:100D5000A50194010E94730869017A01F1E0CF1A9C
:100D6000D108E108F108C114D10481E0E806F104DA
:100D700088F068E478EE81E090E0A50194010E949B
:100D8000730869017A0191E0C91AD108E108F108F4
:100D900093E001C091E0E1E03E1206C08091810045
:100DA000887F892B80938100411451046104710470
:100DB00071F0D801AA0FBB1FA30192010E949208F3
:100DC00028EE33E040E050E00E94510803C02FEFCE
:100DD0003FEFA901F1E03F16A1F082E0381619F1CA
:100DE000311033C0C7BC20935C0130935D01409348
:100DF0005E0150935F0180916E00826080936E006F
:100E000024C0D0928900C09288002093550130936D
:100E10005601409357015093580180916F008260B2
:100E200080936F0012C0C092B30020934E013093A4
:100E30004F014093500150935101809170008260A6
:100E40008093700002C084E078CF0F900F900F90D5
:100E50000F90DF91CF911F910F91FF90EF90DF9056
:100E6000CF90BF90AF909F908F907F906F905F904A
:100E70004F903F900895813039F018F0823051F052
:100E8000089510926E00089580916F008D7F809379
:100E90006F000895809170008D7F8093700081E0D5
:100EA0008093B0008091B100887F84608093B1000E
:100EB0001092B3000895CF93C82F809106018C1330
:100EC00007C0E2ECF0E084919FEF9093060101C02F
:100ED0008FEF0E943B0760E08C2FCF910C94BB04F6
:100EE0001F920F920FB60F9211242F933F934F939F
:100EF0005F936F937F938F939F93AF93BF93EF9382
:100F0000FF9380914E0190914F01A0915001B091BB
:100F10005101892B8A2B8B2B51F190914B01E09140
:100F20004C01F0914D0180818927808380914E0191
:100F300090914F01A0915001B091510118161906DE
:100F40001A061B06C4F480914E0190914F01A091A6
:100F50005001B09151010197A109B10980934E014F
:100F600090934F01A0935001B093510104C0809120
:100F700006010E945B07FF91EF91BF91AF919F9196
:100F80008F917F916F915F914F913F912F910F9032
:100F90000FBE0F901F9018951F920F920FB60F92D1
:100FA00011242F933F938F939F93AF93BF9380917F
:100FB000610190916201A0916301B091640130914F
:100FC000600123E0230F2D3720F40196A11DB11DF0
:100FD00005C026E8230F0296A11DB11D20936001D4
:100FE0008093610190936201A0936301B0936401C7
:100FF0008091650190916601A0916701B0916801AF
:101000000196A11DB11D8093650190936601A09387
:101010006701B0936801BF91AF919F918F913F910C
:101020002F910F900FBE0F901F901895789484B554
:10103000826084BD84B5816084BD85B5826085BDD4
:1010400085B5816085BDEEE6F0E0808181608083BA
:10105000E1E8F0E01082808182608083808181609D
:101060008083E0E8F0E0808181608083E1EBF0E064
:10107000808184608083E0EBF0E080818160808308
:10108000EAE7F0E0808184608083808182608083F1
:101090008081816080838081806880831092C1001C
:1010A0000895A1E21A2EAA1BBB1BFD010DC0AA1FA9
:1010B000BB1FEE1FFF1FA217B307E407F50720F0C1
:1010C000A21BB30BE40BF50B661F771F881F991F3C
:1010D0001A9469F760957095809590959B01AC0185
:1010E000BD01CF010895052E97FB1EF400940E94C8
:1010F0008A0857FD07D00E94510807FC03D04EF420
:101100000C948A0850954095309521953F4F4F4F4C
:101110005F4F089590958095709561957F4F8F4FA3
:101120009F4F08950E949D08A59F900DB49F900D1C
:10113000A49F800D911D11240895A29FB001B39F1B
:10114000C001A39F700D811D1124911DB29F700DD0
:10115000811D1124911D0895CF93DF938230910555
:1011600010F482E090E0E0916B01F0916C0120E0DE
:1011700030E0A0E0B0E0309739F14081518148176C
:101180005907B8F04817590771F482819381109775
:1011900029F013969C938E9312972CC090936C0118
:1011A00080936B0127C02115310531F04217530799
:1011B00018F0A901DB0101C0EF019A01BD01DF01B7
:1011C0000280F381E02DD7CF21153105F9F0281BDE
:1011D000390B2430310580F48A819B8161157105BA
:1011E00021F0FB019383828304C090936C01809370
:1011F0006B01FE01329644C0FE01E20FF31F8193A2
:10120000919322503109398328833AC02091690192
:1012100030916A01232B41F42091020130910301A6
:1012200030936A01209369012091000130910101FE
:101230002115310541F42DB73EB74091040150917D
:101240000501241B350BE0916901F0916A01E21759
:10125000F307A0F42E1B3F0B2817390778F0AC01D9
:101260004E5F5F4F2417350748F04E0F5F1F5093B6
:101270006A01409369018193919302C0E0E0F0E03C
:10128000CF01DF91CF910895CF93DF93009709F4B9
:1012900087C0FC01329713821282C0916B01D091FA
:1012A0006C01209781F420813181280F391F8091B2
:1012B000690190916A018217930779F5F0936A01A9
:1012C000E09369016DC0DE0120E030E0AE17BF079A
:1012D00050F412964D915C9113979D014115510563
:1012E00009F1DA01F3CFB383A28340815181840FE6
:1012F000951F8A179B0771F48D919C911197840F0C
:10130000951F02969183808312968D919C911397DD
:10131000938382832115310529F4F0936C01E093C6
:101320006B013EC0D9011396FC93EE9312974D9139
:101330005D91A40FB51FEA17FB0779F480819181B5
:10134000840F951F0296D90111969C938E938281EA
:10135000938113969C938E931297E0E0F0E08A813C
:101360009B81009719F0FE01EC01F9CFCE010296A6
:1013700028813981820F931F2091690130916A0180
:101380002817390769F4309729F410926C011092EC
:101390006B0102C013821282D0936A01C09369016B
:0A13A000DF91CF910895F894FFCF7C
:1013AA0000006D018000FF04000500060007000E22
:1013BA00000F0010001100000000003B0277028EAF
:1013CA00023202AB0200000000FB02FE02FC02FD38
:1013DA0002030300000000EB03FE030304EA0329EF
:0213EA000400FD
:00000001FF
